{
  "contractName": "EtherOrder",
  "abi": [
    {
      "constant": false,
      "inputs": [
        {
          "name": "_productId",
          "type": "uint256"
        },
        {
          "name": "_shopAddress",
          "type": "address"
        }
      ],
      "name": "etherOrder",
      "outputs": [
        {
          "name": "",
          "type": "bool"
        }
      ],
      "payable": true,
      "stateMutability": "payable",
      "type": "function"
    },
    {
      "constant": false,
      "inputs": [
        {
          "name": "_productId",
          "type": "uint256"
        },
        {
          "name": "_shopAddress",
          "type": "address"
        }
      ],
      "name": "etherWithdrawPayment",
      "outputs": [
        {
          "name": "success",
          "type": "bool"
        }
      ],
      "payable": false,
      "stateMutability": "nonpayable",
      "type": "function"
    },
    {
      "constant": false,
      "inputs": [
        {
          "name": "_productId",
          "type": "uint256"
        },
        {
          "name": "_shopAddress",
          "type": "address"
        }
      ],
      "name": "etherComfirmOrder",
      "outputs": [
        {
          "name": "",
          "type": "bool"
        }
      ],
      "payable": false,
      "stateMutability": "nonpayable",
      "type": "function"
    },
    {
      "anonymous": false,
      "inputs": [
        {
          "indexed": false,
          "name": "_productId",
          "type": "uint256"
        },
        {
          "indexed": false,
          "name": "_shopAddress",
          "type": "address"
        },
        {
          "indexed": false,
          "name": "_from",
          "type": "address"
        },
        {
          "indexed": false,
          "name": "_price",
          "type": "uint256"
        },
        {
          "indexed": false,
          "name": "_status",
          "type": "uint8"
        }
      ],
      "name": "OrderPlaced",
      "type": "event"
    },
    {
      "anonymous": false,
      "inputs": [
        {
          "indexed": false,
          "name": "_productId",
          "type": "uint256"
        },
        {
          "indexed": false,
          "name": "_shopAddress",
          "type": "address"
        },
        {
          "indexed": false,
          "name": "_from",
          "type": "address"
        }
      ],
      "name": "Withdraw",
      "type": "event"
    }
  ],
  "bytecode": "0x6060604052341561000f57600080fd5b610a388061001e6000396000f300606060405260043610610057576000357c0100000000000000000000000000000000000000000000000000000000900463ffffffff16806301a841831461005c5780638535b0cd146100ab5780639147391214610105575b600080fd5b610091600480803590602001909190803573ffffffffffffffffffffffffffffffffffffffff1690602001909190505061015f565b604051808215151515815260200191505060405180910390f35b34156100b657600080fd5b6100eb600480803590602001909190803573ffffffffffffffffffffffffffffffffffffffff16906020019091905050610486565b604051808215151515815260200191505060405180910390f35b341561011057600080fd5b610145600480803590602001909190803573ffffffffffffffffffffffffffffffffffffffff16906020019091905050610702565b604051808215151515815260200191505060405180910390f35b6000806000841415151561017257600080fd5b60018081111561017e57fe5b6002600086815260200190815260200160002060009054906101000a900460ff1660018111156101aa57fe5b1415156101b657600080fd5b6000600360003373ffffffffffffffffffffffffffffffffffffffff1673ffffffffffffffffffffffffffffffffffffffff1681526020019081526020016000205414151561020457600080fd5b60003411151561021357600080fd5b600073ffffffffffffffffffffffffffffffffffffffff168373ffffffffffffffffffffffffffffffffffffffff161415151561024f57600080fd5b8290508073ffffffffffffffffffffffffffffffffffffffff166379a85e6c856000604051604001526040518263ffffffff167c0100000000000000000000000000000000000000000000000000000000028152600401808281526020019150506040805180830381600087803b15156102c857600080fd5b6102c65a03f115156102d957600080fd5b5050506040518051906020018051905050600080829190505550600054341115610342573373ffffffffffffffffffffffffffffffffffffffff166108fc60005434039081150290604051600060405180830381858888f19350505050151561034157600080fd5b5b60006002600086815260200190815260200160002060006101000a81548160ff0219169083600181111561037257fe5b021790555083600360003373ffffffffffffffffffffffffffffffffffffffff1673ffffffffffffffffffffffffffffffffffffffff168152602001908152602001600020819055507f6fcf88b1c4053bef2d654d492cfca3c0b47a56a13446fd334c95efc1279181f98484336000546000604051808681526020018573ffffffffffffffffffffffffffffffffffffffff1673ffffffffffffffffffffffffffffffffffffffff1681526020018473ffffffffffffffffffffffffffffffffffffffff1673ffffffffffffffffffffffffffffffffffffffff16815260200183815260200182600181111561046457fe5b60ff1681526020019550505050505060405180910390a1600191505092915050565b6000806000841415151561049957600080fd5b600060018111156104a657fe5b6002600086815260200190815260200160002060009054906101000a900460ff1660018111156104d257fe5b1415156104de57600080fd5b6000600360003373ffffffffffffffffffffffffffffffffffffffff1673ffffffffffffffffffffffffffffffffffffffff168152602001908152602001600020541415151561052d57600080fd5b8290508073ffffffffffffffffffffffffffffffffffffffff166379a85e6c856000604051604001526040518263ffffffff167c0100000000000000000000000000000000000000000000000000000000028152600401808281526020019150506040805180830381600087803b15156105a657600080fd5b6102c65a03f115156105b757600080fd5b50505060405180519060200180519050506000808291905055503373ffffffffffffffffffffffffffffffffffffffff166108fc6000549081150290604051600060405180830381858888f19350505050151561061357600080fd5b6000600360003373ffffffffffffffffffffffffffffffffffffffff1673ffffffffffffffffffffffffffffffffffffffff168152602001908152602001600020819055507fa51bb7c2c2049ab09fbff5561211a4ee34b3b4cee74c42f1bce5461cd4ef3f8d848433604051808481526020018373ffffffffffffffffffffffffffffffffffffffff1673ffffffffffffffffffffffffffffffffffffffff1681526020018273ffffffffffffffffffffffffffffffffffffffff1673ffffffffffffffffffffffffffffffffffffffff168152602001935050505060405180910390a1600191505092915050565b6000808290508073ffffffffffffffffffffffffffffffffffffffff1663893d20e86000604051602001526040518163ffffffff167c0100000000000000000000000000000000000000000000000000000000028152600401602060405180830381600087803b151561077457600080fd5b6102c65a03f1151561078557600080fd5b5050506040518051905073ffffffffffffffffffffffffffffffffffffffff163373ffffffffffffffffffffffffffffffffffffffff161415156107c857600080fd5b8073ffffffffffffffffffffffffffffffffffffffff166379a85e6c856000604051604001526040518263ffffffff167c0100000000000000000000000000000000000000000000000000000000028152600401808281526020019150506040805180830381600087803b151561083e57600080fd5b6102c65a03f1151561084f57600080fd5b50505060405180519060200180519050600080600160008491905055839190505550508273ffffffffffffffffffffffffffffffffffffffff166108fc6000549081150290604051600060405180830381858888f1935050505015156108b457600080fd5b6001600081548092919060019003919050555060016002600086815260200190815260200160002060006101000a81548160ff021916908360018111156108f757fe5b02179055506000600360003373ffffffffffffffffffffffffffffffffffffffff1673ffffffffffffffffffffffffffffffffffffffff168152602001908152602001600020819055507f6fcf88b1c4053bef2d654d492cfca3c0b47a56a13446fd334c95efc1279181f98484336000546001604051808681526020018573ffffffffffffffffffffffffffffffffffffffff1673ffffffffffffffffffffffffffffffffffffffff1681526020018473ffffffffffffffffffffffffffffffffffffffff1673ffffffffffffffffffffffffffffffffffffffff1681526020018381526020018260018111156109ea57fe5b60ff1681526020019550505050505060405180910390a16001915050929150505600a165627a7a72305820d37d275b9e11cb9d2cae9b5d77477bb7061bfd54a566e18ff992c39d583a5a610029",
  "source": "pragma solidity ^0.4.16;\r\n\r\nimport \"./Shop.sol\";\r\nimport \"./IEtherOrder.sol\";\r\n\r\ncontract EtherOrder is IEtherOrder {\r\n\r\n  uint256 productPriceInWei;\r\n  uint256 stock;\r\n  \r\n  mapping(uint256 => OrderStatus) productStatus;\r\n  mapping(address => uint256) personProduct; // order one product only\r\n  \r\n  function etherOrder(uint256 _productId, address _shopAddress) public payable returns (bool) {\r\n    require(_productId != 0);\r\n    require(productStatus[_productId] == OrderStatus.Confirmed);\r\n    require(personProduct[msg.sender] == 0);\r\n    require(msg.value > 0);\r\n    require(_shopAddress != address(0));\r\n    \r\n    Shop shop = Shop(_shopAddress);\r\n    \r\n    (productPriceInWei, ) = shop.getProductInfo(_productId);\r\n    if (msg.value > productPriceInWei) {\r\n      msg.sender.transfer(msg.value - productPriceInWei); \r\n    }\r\n\r\n    productStatus[_productId] = OrderStatus.Pending;\r\n    personProduct[msg.sender] = _productId;\r\n    \r\n    OrderPlaced(_productId, _shopAddress, msg.sender, productPriceInWei, OrderStatus.Pending);\r\n    return true;\r\n  }\r\n  \r\n  function etherComfirmOrder(uint256 _productId, address _shopAddress) public returns (bool) {\r\n    Shop shop = Shop(_shopAddress);\r\n    require(msg.sender == shop.getOwner());\r\n    \r\n    (productPriceInWei, stock) = shop.getProductInfo(_productId);\r\n    _shopAddress.transfer(productPriceInWei);\r\n    \r\n    stock--;\r\n    productStatus[_productId] = OrderStatus.Confirmed;\r\n    personProduct[msg.sender] = 0;\r\n    \r\n    OrderPlaced(_productId, _shopAddress, msg.sender, productPriceInWei, OrderStatus.Confirmed);\r\n    return true;\r\n  }\r\n\r\n  function etherWithdrawPayment(uint256 _productId, address _shopAddress) public returns (bool success) {\r\n    require(_productId != 0);\r\n    require(productStatus[_productId] == OrderStatus.Pending);  \r\n    require(personProduct[msg.sender] != 0);\r\n    \r\n    Shop shop = Shop(_shopAddress);\r\n    (productPriceInWei, ) = shop.getProductInfo(_productId);\r\n    msg.sender.transfer(productPriceInWei);\r\n    personProduct[msg.sender] = 0;\r\n\r\n    Withdraw(_productId, _shopAddress, msg.sender);\r\n    return true;\r\n  }\r\n}",
  "sourcePath": "C:\\Users\\sevgi\\Desktop\\Shop\\contracts\\EtherOrder.sol",
  "compiler": {
    "name": "solc",
    "version": "0.4.18+commit.9cf6e910.Emscripten.clang"
  },
  "schemaVersion": "1.0.1",
  "updatedAt": "2018-01-13T21:58:56.625Z"
}